:100000000C945C000C9479000C9479000C947900A9
:100010000C9479000C9479000C9479000C9479007C
:100020000C9479000C9479000C9479000C9479006C
:100030000C9479000C9479000C9479000C9479005C
:100040000C9428010C9479000C9479000C9479009C
:100050000C9479000C9479000C9479000C9479003C
:100060000C9479000C947900000000080002010053
:100070000003040700000000000000000000000072
:10008000250028002B0000000000240027002A0083
:10009000040404040404040402020202020203032E
:1000A0000303030301020408102040800102040836
:1000B000102001020408102011241FBECFEFD8E049
:1000C000DEBFCDBF11E0A0E0B1E0EEEFF4E002C092
:1000D00005900D92A431B107D9F721E0A4E1B1E078
:1000E00001C01D92AD31B207E1F70E9472010C947C
:1000F0007D020C94000090E0FC01EC55FF4F249130
:1001000080579F4FFC018491882399F090E0880FDD
:10011000991FFC01EA57FF4FA591B491FC01E458E7
:10012000FF4F859194918FB7F894EC91E22BEC936B
:100130008FBF089590E0FC01E859FF4F2491FC0126
:10014000EC55FF4F3491FC01E057FF4FE491EE2353
:10015000C9F0222339F0233001F1A8F4213019F13C
:10016000223029F1F0E0EE0FFF1FE458FF4FA59178
:10017000B4918FB7F894EC91611126C030953E236D
:100180003C938FBF08952730A9F02830C9F0243060
:1001900049F7809180008F7D03C0809180008F7728
:1001A00080938000DFCF84B58F7784BDDBCF84B5AB
:1001B0008F7DFBCF8091B0008F778093B000D2CF3E
:1001C0008091B0008F7DF9CF3E2BDACF3FB7F89406
:1001D0008091190190911A01A0911B01B0911C010D
:1001E00026B5A89B05C02F3F19F00196A11DB11D92
:1001F0003FBFBA2FA92F982F8827BC01CD01620FCE
:10020000711D811D911D42E0660F771F881F991F88
:100210004A95D1F708950F931F93CF93DF93082F3B
:10022000162FD42FC8E06D2F6170802F0E949A0086
:10023000D69561E0812F0E949A0060E0812F0E9494
:100240009A00C15081F7DF91CF911F910F910895CE
:100250001F920F920FB60F9211242F933F938F93FB
:100260009F93AF93BF938091150190911601A09138
:100270001701B09118013091140123E0230F2D379D
:1002800058F50196A11DB11D20931401809315010D
:1002900090931601A0931701B09318018091190152
:1002A00090911A01A0911B01B0911C010196A11D12
:1002B000B11D8093190190931A01A0931B01B09373
:1002C0001C01BF91AF919F918F913F912F910F9002
:1002D0000FBE0F901F90189526E8230F0296A11DC0
:1002E000B11DD2CFCF93DF9300D000D000D0CDB7D7
:1002F000DEB7789484B5826084BD84B5816084BDA6
:1003000085B5826085BD85B5816085BD80916E00B3
:10031000816080936E0010928100809181008260E4
:100320008093810080918100816080938100809121
:1003300080008160809380008091B1008460809310
:10034000B1008091B00081608093B00080917A000C
:10035000846080937A0080917A00826080937A0032
:1003600080917A00816080937A0080917A00806821
:1003700080937A001092C10084E00E947B0083E0A9
:100380000E947B0082E00E947B0020E031E03A8303
:10039000298380E091E09C838B8330E0232E31E041
:1003A000332E20E0C22E21E0D22EE0E0F1E0FE83E9
:1003B000ED8300E011E090E0E92E91E0F92E60E09D
:1003C00083E00E949A00F7014081F2E0EF0EF11CF9
:1003D00062E084E00E940B01F801408162E084E069
:1003E0000E940B01ED81FE81408162E084E00E9469
:1003F0000B01F601408162E084E00E940B01F101F3
:10040000408162E084E00E940B01EB81FC8140812D
:1004100062E084E00E940B01E981FA81408162E0A0
:1004200084E00E940B0161E083E00E949A000E9438
:10043000E6004B015C0184E6482E512C612C712CA6
:100440000E94E600681979098A099B09683E734091
:1004500081059105A8F3F1E04F1A51086108710870
:1004600028EE820E23E0921EA11CB11C41145104FF
:100470006104710429F784E191E08E159F0509F06C
:100480009ECF0E5F1F4F8017910709F094CFED812B
:10049000FE813296FE83ED832CE031E02E173F077C
:1004A00009F087CF32E0C30ED11C8C159D0509F0F1
:1004B0007CCF82E0280E311CECE0F1E0E215F30580
:1004C00009F06FCF2B813C812E5F3F4F3C832B8304
:1004D0002451314009F061CFE981FA813296FA83E3
:1004E000E983E053F14009F054CF80E090E0892B9C
:0E04F00009F44BCF0E94000048CFF894FFCFD4
:1004FE0001004F00120006004C00240020000F00E7
:04050E0000000400E5
:00000001FF
