:100000000C945C000C9479000C9479000C947900A9
:100010000C9479000C9479000C9479000C9479007C
:100020000C9479000C9479000C9479000C9479006C
:100030000C9479000C9479000C9479000C9479005C
:100040000C9428010C9479000C9479000C9479009C
:100050000C9479000C9479000C9479000C9479003C
:100060000C9479000C947900000000080002010053
:100070000003040700000000000000000000000072
:10008000250028002B0000000000240027002A0083
:10009000040404040404040402020202020203032E
:1000A0000303030301020408102040800102040836
:1000B000102001020408102011241FBECFEFD8E049
:1000C000DEBFCDBF11E0A0E0B1E0ECE2F4E002C0A1
:1000D00005900D92A431B107D9F721E0A4E1B1E078
:1000E00001C01D92AD31B207E1F70E9472010C947C
:1000F00014020C94000090E0FC01EC55FF4F249199
:1001000080579F4FFC018491882399F090E0880FDD
:10011000991FFC01EA57FF4FA591B491FC01E458E7
:10012000FF4F859194918FB7F894EC91E22BEC936B
:100130008FBF089590E0FC01E859FF4F2491FC0126
:10014000EC55FF4F3491FC01E057FF4FE491EE2353
:10015000C9F0222339F0233001F1A8F4213019F13C
:10016000223029F1F0E0EE0FFF1FE458FF4FA59178
:10017000B4918FB7F894EC91611126C030953E236D
:100180003C938FBF08952730A9F02830C9F0243060
:1001900049F7809180008F7D03C0809180008F7728
:1001A00080938000DFCF84B58F7784BDDBCF84B5AB
:1001B0008F7DFBCF8091B0008F778093B000D2CF3E
:1001C0008091B0008F7DF9CF3E2BDACF3FB7F89406
:1001D0008091190190911A01A0911B01B0911C010D
:1001E00026B5A89B05C02F3F19F00196A11DB11D92
:1001F0003FBFBA2FA92F982F8827BC01CD01620FCE
:10020000711D811D911D42E0660F771F881F991F88
:100210004A95D1F708950F931F93CF93DF93082F3B
:10022000162FD42FC8E06D2F6170802F0E949A0086
:10023000D69561E0812F0E949A0060E0812F0E9494
:100240009A00C15081F7DF91CF911F910F910895CE
:100250001F920F920FB60F9211242F933F938F93FB
:100260009F93AF93BF938091150190911601A09138
:100270001701B09118013091140123E0230F2D379D
:1002800058F50196A11DB11D20931401809315010D
:1002900090931601A0931701B09318018091190152
:1002A00090911A01A0911B01B0911C010196A11D12
:1002B000B11D8093190190931A01A0931B01B09373
:1002C0001C01BF91AF919F918F913F912F910F9002
:1002D0000FBE0F901F90189526E8230F0296A11DC0
:1002E000B11DD2CF789484B5826084BD84B581601D
:1002F00084BD85B5826085BD85B5816085BD8091F1
:100300006E00816080936E00109281008091810068
:100310008260809381008091810081608093810060
:10032000809180008160809380008091B100846022
:100330008093B1008091B00081608093B000809183
:100340007A00846080937A0080917A008260809342
:100350007A0080917A00816080937A0080917A009F
:10036000806880937A001092C10084E00E947B0034
:1003700083E00E947B0082E00E947B0094E1892E52
:1003800091E0992E20E0A22E20E0B22EC0E0D1E034
:1003900000E011E060E083E00E949A00F8014081F3
:1003A0000E5F1F4F62E084E00E940B01488162E013
:1003B00084E00E940B0161E083E00E949A000E94A9
:1003C000E6006B017C0188EE482E83E0582E612CFC
:1003D000712C0E94E6006C197D098E099F09683E08
:1003E000734081059105A8F3F1E04F1A51086108A7
:1003F000710828EEC20E23E0D21EE11CF11C41144C
:1004000051046104710429F78016910619F62296A9
:10041000F1E0C431DF0709F0BBCFA114B10409F446
:0C042000B5CF0E940000B2CFF894FFCFCF
:10042C0001004F00120006004C00240020000F00B9
:04043C0000000400B8
:00000001FF
